{
  "_format": "hh-sol-artifact-1",
  "contractName": "Staking",
  "sourceName": "contracts/Staking.sol",
  "abi": [
    {
      "inputs": [
        {
          "internalType": "address",
          "name": "rewardsToken",
          "type": "address"
        },
        {
          "internalType": "address",
          "name": "stakingToken",
          "type": "address"
        }
      ],
      "stateMutability": "nonpayable",
      "type": "constructor"
    },
    {
      "anonymous": false,
      "inputs": [
        {
          "indexed": false,
          "internalType": "uint256",
          "name": "newDuration",
          "type": "uint256"
        }
      ],
      "name": "DurationUpdated",
      "type": "event"
    },
    {
      "anonymous": false,
      "inputs": [
        {
          "indexed": true,
          "internalType": "address",
          "name": "previousOwner",
          "type": "address"
        },
        {
          "indexed": true,
          "internalType": "address",
          "name": "newOwner",
          "type": "address"
        }
      ],
      "name": "OwnershipTransferred",
      "type": "event"
    },
    {
      "anonymous": false,
      "inputs": [
        {
          "indexed": false,
          "internalType": "address",
          "name": "account",
          "type": "address"
        }
      ],
      "name": "Paused",
      "type": "event"
    },
    {
      "anonymous": false,
      "inputs": [
        {
          "indexed": false,
          "internalType": "uint256",
          "name": "reward",
          "type": "uint256"
        }
      ],
      "name": "RewardIncreased",
      "type": "event"
    },
    {
      "anonymous": false,
      "inputs": [
        {
          "indexed": true,
          "internalType": "address",
          "name": "user",
          "type": "address"
        },
        {
          "indexed": false,
          "internalType": "uint256",
          "name": "reward",
          "type": "uint256"
        }
      ],
      "name": "RewardPaid",
      "type": "event"
    },
    {
      "anonymous": false,
      "inputs": [
        {
          "indexed": true,
          "internalType": "address",
          "name": "user",
          "type": "address"
        },
        {
          "indexed": false,
          "internalType": "uint256",
          "name": "amount",
          "type": "uint256"
        }
      ],
      "name": "Staked",
      "type": "event"
    },
    {
      "anonymous": false,
      "inputs": [
        {
          "indexed": false,
          "internalType": "address",
          "name": "account",
          "type": "address"
        }
      ],
      "name": "Unpaused",
      "type": "event"
    },
    {
      "anonymous": false,
      "inputs": [
        {
          "indexed": true,
          "internalType": "address",
          "name": "user",
          "type": "address"
        },
        {
          "indexed": false,
          "internalType": "uint256",
          "name": "amount",
          "type": "uint256"
        }
      ],
      "name": "Withdrawn",
      "type": "event"
    },
    {
      "inputs": [],
      "name": "_accBlockReward",
      "outputs": [
        {
          "internalType": "uint256",
          "name": "",
          "type": "uint256"
        }
      ],
      "stateMutability": "view",
      "type": "function"
    },
    {
      "inputs": [],
      "name": "_blockReward",
      "outputs": [
        {
          "internalType": "uint256",
          "name": "",
          "type": "uint256"
        }
      ],
      "stateMutability": "view",
      "type": "function"
    },
    {
      "inputs": [],
      "name": "_endBlock",
      "outputs": [
        {
          "internalType": "uint256",
          "name": "",
          "type": "uint256"
        }
      ],
      "stateMutability": "view",
      "type": "function"
    },
    {
      "inputs": [],
      "name": "_lastBlock",
      "outputs": [
        {
          "internalType": "uint256",
          "name": "",
          "type": "uint256"
        }
      ],
      "stateMutability": "view",
      "type": "function"
    },
    {
      "inputs": [],
      "name": "_rewardsDuration",
      "outputs": [
        {
          "internalType": "uint256",
          "name": "",
          "type": "uint256"
        }
      ],
      "stateMutability": "view",
      "type": "function"
    },
    {
      "inputs": [],
      "name": "_rewardsToken",
      "outputs": [
        {
          "internalType": "contract IERC20",
          "name": "",
          "type": "address"
        }
      ],
      "stateMutability": "view",
      "type": "function"
    },
    {
      "inputs": [],
      "name": "_stakeToken",
      "outputs": [
        {
          "internalType": "contract IERC20",
          "name": "",
          "type": "address"
        }
      ],
      "stateMutability": "view",
      "type": "function"
    },
    {
      "inputs": [],
      "name": "_totalSupply",
      "outputs": [
        {
          "internalType": "uint256",
          "name": "",
          "type": "uint256"
        }
      ],
      "stateMutability": "view",
      "type": "function"
    },
    {
      "inputs": [
        {
          "internalType": "uint256",
          "name": "reward",
          "type": "uint256"
        },
        {
          "internalType": "uint256",
          "name": "duration",
          "type": "uint256"
        }
      ],
      "name": "activateReward",
      "outputs": [],
      "stateMutability": "nonpayable",
      "type": "function"
    },
    {
      "inputs": [
        {
          "internalType": "uint256",
          "name": "funds",
          "type": "uint256"
        }
      ],
      "name": "addFunding",
      "outputs": [],
      "stateMutability": "nonpayable",
      "type": "function"
    },
    {
      "inputs": [
        {
          "internalType": "address",
          "name": "account",
          "type": "address"
        }
      ],
      "name": "balanceOf",
      "outputs": [
        {
          "internalType": "uint256",
          "name": "",
          "type": "uint256"
        }
      ],
      "stateMutability": "view",
      "type": "function"
    },
    {
      "inputs": [
        {
          "internalType": "address",
          "name": "account",
          "type": "address"
        }
      ],
      "name": "earned",
      "outputs": [
        {
          "internalType": "uint256",
          "name": "",
          "type": "uint256"
        }
      ],
      "stateMutability": "view",
      "type": "function"
    },
    {
      "inputs": [],
      "name": "owner",
      "outputs": [
        {
          "internalType": "address",
          "name": "",
          "type": "address"
        }
      ],
      "stateMutability": "view",
      "type": "function"
    },
    {
      "inputs": [],
      "name": "pause",
      "outputs": [],
      "stateMutability": "nonpayable",
      "type": "function"
    },
    {
      "inputs": [],
      "name": "paused",
      "outputs": [
        {
          "internalType": "bool",
          "name": "",
          "type": "bool"
        }
      ],
      "stateMutability": "view",
      "type": "function"
    },
    {
      "inputs": [],
      "name": "renounceOwnership",
      "outputs": [],
      "stateMutability": "nonpayable",
      "type": "function"
    },
    {
      "inputs": [
        {
          "internalType": "uint256",
          "name": "amount",
          "type": "uint256"
        }
      ],
      "name": "safeWithdraw",
      "outputs": [],
      "stateMutability": "nonpayable",
      "type": "function"
    },
    {
      "inputs": [
        {
          "internalType": "uint256",
          "name": "amount",
          "type": "uint256"
        }
      ],
      "name": "stake",
      "outputs": [],
      "stateMutability": "nonpayable",
      "type": "function"
    },
    {
      "inputs": [],
      "name": "totalSupply",
      "outputs": [
        {
          "internalType": "uint256",
          "name": "",
          "type": "uint256"
        }
      ],
      "stateMutability": "view",
      "type": "function"
    },
    {
      "inputs": [
        {
          "internalType": "address",
          "name": "newOwner",
          "type": "address"
        }
      ],
      "name": "transferOwnership",
      "outputs": [],
      "stateMutability": "nonpayable",
      "type": "function"
    },
    {
      "inputs": [],
      "name": "unpause",
      "outputs": [],
      "stateMutability": "nonpayable",
      "type": "function"
    },
    {
      "inputs": [
        {
          "internalType": "uint256",
          "name": "amount",
          "type": "uint256"
        }
      ],
      "name": "withdraw",
      "outputs": [],
      "stateMutability": "nonpayable",
      "type": "function"
    }
  ],
  "bytecode": "0x60806040523480156200001157600080fd5b5060405162002849380380620028498339818101604052810190620000379190620001e6565b620000576200004b6200010360201b60201c565b6200010b60201b60201c565b600180819055506000600260006101000a81548160ff02191690831515021790555081600260016101000a81548173ffffffffffffffffffffffffffffffffffffffff021916908373ffffffffffffffffffffffffffffffffffffffff16021790555080600360006101000a81548173ffffffffffffffffffffffffffffffffffffffff021916908373ffffffffffffffffffffffffffffffffffffffff160217905550505062000280565b600033905090565b60008060009054906101000a900473ffffffffffffffffffffffffffffffffffffffff169050816000806101000a81548173ffffffffffffffffffffffffffffffffffffffff021916908373ffffffffffffffffffffffffffffffffffffffff1602179055508173ffffffffffffffffffffffffffffffffffffffff168173ffffffffffffffffffffffffffffffffffffffff167f8be0079c531659141344cd1fd0a4f28419497f9722a3daafe3b4186f6b6457e060405160405180910390a35050565b600081519050620001e08162000266565b92915050565b600080604083850312156200020057620001ff62000261565b5b60006200021085828601620001cf565b92505060206200022385828601620001cf565b9150509250929050565b60006200023a8262000241565b9050919050565b600073ffffffffffffffffffffffffffffffffffffffff82169050919050565b600080fd5b62000271816200022d565b81146200027d57600080fd5b50565b6125b980620002906000396000f3fe608060405234801561001057600080fd5b50600436106101415760003560e01c806371ddda57116100b8578063a694fc3a1161007c578063a694fc3a14610308578063b0fd035b14610324578063d238d4af14610340578063f2fde38b1461035e578063f5cec9291461037a578063f712b2791461039857610141565b806371ddda571461028657806383beae2e146102a45780638456cb59146102c25780638da5cb5b146102cc57806399c519b8146102ea57610141565b80634b36f85a1161010a5780634b36f85a146101d85780635785ff61146101f65780635c975abb146102125780635d5d46131461023057806370a082311461024c578063715018a61461027c57610141565b80628cc2621461014657806318160ddd146101765780632e1a7d4d146101945780633eaaf86b146101b05780633f4ba83a146101ce575b600080fd5b610160600480360381019061015b9190611ad1565b6103b6565b60405161016d9190612036565b60405180910390f35b61017e610523565b60405161018b9190612036565b60405180910390f35b6101ae60048036038101906101a99190611b2b565b61052d565b005b6101b8610848565b6040516101c59190612036565b60405180910390f35b6101d661084e565b005b6101e06108d4565b6040516101ed9190612036565b60405180910390f35b610210600480360381019061020b9190611b85565b6108da565b005b61021a610b49565b6040516102279190611e7e565b60405180910390f35b61024a60048036038101906102459190611b2b565b610b60565b005b61026660048036038101906102619190611ad1565b610c2e565b6040516102739190612036565b60405180910390f35b610284610c77565b005b61028e610cff565b60405161029b9190611e99565b60405180910390f35b6102ac610d25565b6040516102b99190611e99565b60405180910390f35b6102ca610d4b565b005b6102d4610dd1565b6040516102e19190611e03565b60405180910390f35b6102f2610dfa565b6040516102ff9190612036565b60405180910390f35b610322600480360381019061031d9190611b2b565b610e00565b005b61033e60048036038101906103399190611b2b565b6110a2565b005b61034861128f565b6040516103559190612036565b60405180910390f35b61037860048036038101906103739190611ad1565b611295565b005b61038261138d565b60405161038f9190612036565b60405180910390f35b6103a0611393565b6040516103ad9190612036565b60405180910390f35b6000806008549050600060045443106103d1576004546103d3565b435b905060006009541461042857600954670de0b6b3a7640000600554600754846103fc9190612164565b610406919061210a565b610410919061210a565b61041a91906120d9565b826104259190612083565b91505b600b60008573ffffffffffffffffffffffffffffffffffffffff1673ffffffffffffffffffffffffffffffffffffffff16815260200190815260200160002054670de0b6b3a7640000600a60008773ffffffffffffffffffffffffffffffffffffffff1673ffffffffffffffffffffffffffffffffffffffff16815260200190815260200160002054846104bc9190612164565b600c60008873ffffffffffffffffffffffffffffffffffffffff1673ffffffffffffffffffffffffffffffffffffffff16815260200190815260200160002054610506919061210a565b61051091906120d9565b61051a9190612083565b92505050919050565b6000600954905090565b60026001541415610573576040517f08c379a000000000000000000000000000000000000000000000000000000000815260040161056a90612016565b60405180910390fd5b600260018190555080600c60003373ffffffffffffffffffffffffffffffffffffffff1673ffffffffffffffffffffffffffffffffffffffff1681526020019081526020016000205410156105fd576040517f08c379a00000000000000000000000000000000000000000000000000000000081526004016105f490611f36565b60405180910390fd5b61060633611399565b80600960008282546106189190612164565b9250508190555080600c60003373ffffffffffffffffffffffffffffffffffffffff1673ffffffffffffffffffffffffffffffffffffffff168152602001908152602001600020600082825461066e9190612164565b925050819055506106c23382600360009054906101000a900473ffffffffffffffffffffffffffffffffffffffff1673ffffffffffffffffffffffffffffffffffffffff166114e09092919063ffffffff16565b6000600b60003373ffffffffffffffffffffffffffffffffffffffff1673ffffffffffffffffffffffffffffffffffffffff168152602001908152602001600020549050600081146107ef576000600b60003373ffffffffffffffffffffffffffffffffffffffff1673ffffffffffffffffffffffffffffffffffffffff168152602001908152602001600020819055506107a03382600260019054906101000a900473ffffffffffffffffffffffffffffffffffffffff1673ffffffffffffffffffffffffffffffffffffffff166114e09092919063ffffffff16565b3373ffffffffffffffffffffffffffffffffffffffff167fe2403640ba68fed3a2f88b7557551d1993f84b99bb10ff833f0cf8db0c5e0486826040516107e69190612036565b60405180910390a25b3373ffffffffffffffffffffffffffffffffffffffff167f7084f5476618d8e60b11ef0d7d3f06914655adb8793e28ff7f018d4c76d505d5836040516108359190612036565b60405180910390a2506001808190555050565b60095481565b610856611566565b73ffffffffffffffffffffffffffffffffffffffff16610874610dd1565b73ffffffffffffffffffffffffffffffffffffffff16146108ca576040517f08c379a00000000000000000000000000000000000000000000000000000000081526004016108c190611fb6565b60405180910390fd5b6108d261156e565b565b60085481565b6108e2611566565b73ffffffffffffffffffffffffffffffffffffffff16610900610dd1565b73ffffffffffffffffffffffffffffffffffffffff1614610956576040517f08c379a000000000000000000000000000000000000000000000000000000000815260040161094d90611fb6565b60405180910390fd5b60045443101561099b576040517f08c379a000000000000000000000000000000000000000000000000000000000815260040161099290611f16565b60405180910390fd5b806006819055506109ac6000611399565b80826109b891906120d9565b6005819055506000600260019054906101000a900473ffffffffffffffffffffffffffffffffffffffff1673ffffffffffffffffffffffffffffffffffffffff166370a08231306040518263ffffffff1660e01b8152600401610a1b9190611e03565b60206040518083038186803b158015610a3357600080fd5b505afa158015610a47573d6000803e3d6000fd5b505050506040513d601f19601f82011682018060405250810190610a6b9190611b58565b90508181610a7991906120d9565b6005541115610abd576040517f08c379a0000000000000000000000000000000000000000000000000000000008152600401610ab490611f76565b60405180910390fd5b436007819055508143610ad09190612083565b6004819055507f91abcc2d6823e3a3f11d31b208dd3065d2c6a791f1c7c9fe96a42ce12897eac582604051610b059190612036565b60405180910390a17f5492efc1de42b0db13f77bb09932eca69805413de511c6334aa0e3eac3ac4b3f83604051610b3c9190612036565b60405180910390a1505050565b6000600260009054906101000a900460ff16905090565b610b68611566565b73ffffffffffffffffffffffffffffffffffffffff16610b86610dd1565b73ffffffffffffffffffffffffffffffffffffffff1614610bdc576040517f08c379a0000000000000000000000000000000000000000000000000000000008152600401610bd390611fb6565b60405180910390fd5b610c2b333083600260019054906101000a900473ffffffffffffffffffffffffffffffffffffffff1673ffffffffffffffffffffffffffffffffffffffff16611610909392919063ffffffff16565b50565b6000600c60008373ffffffffffffffffffffffffffffffffffffffff1673ffffffffffffffffffffffffffffffffffffffff168152602001908152602001600020549050919050565b610c7f611566565b73ffffffffffffffffffffffffffffffffffffffff16610c9d610dd1565b73ffffffffffffffffffffffffffffffffffffffff1614610cf3576040517f08c379a0000000000000000000000000000000000000000000000000000000008152600401610cea90611fb6565b60405180910390fd5b610cfd6000611699565b565b600360009054906101000a900473ffffffffffffffffffffffffffffffffffffffff1681565b600260019054906101000a900473ffffffffffffffffffffffffffffffffffffffff1681565b610d53611566565b73ffffffffffffffffffffffffffffffffffffffff16610d71610dd1565b73ffffffffffffffffffffffffffffffffffffffff1614610dc7576040517f08c379a0000000000000000000000000000000000000000000000000000000008152600401610dbe90611fb6565b60405180910390fd5b610dcf61175d565b565b60008060009054906101000a900473ffffffffffffffffffffffffffffffffffffffff16905090565b60065481565b60026001541415610e46576040517f08c379a0000000000000000000000000000000000000000000000000000000008152600401610e3d90612016565b60405180910390fd5b6002600181905550610e56610b49565b15610e96576040517f08c379a0000000000000000000000000000000000000000000000000000000008152600401610e8d90611f96565b60405180910390fd5b80600360009054906101000a900473ffffffffffffffffffffffffffffffffffffffff1673ffffffffffffffffffffffffffffffffffffffff166370a08231336040518263ffffffff1660e01b8152600401610ef29190611e03565b60206040518083038186803b158015610f0a57600080fd5b505afa158015610f1e573d6000803e3d6000fd5b505050506040513d601f19601f82011682018060405250810190610f429190611b58565b1015610f83576040517f08c379a0000000000000000000000000000000000000000000000000000000008152600401610f7a90611f36565b60405180910390fd5b610f8c33611399565b8060096000828254610f9e9190612083565b9250508190555080600c60003373ffffffffffffffffffffffffffffffffffffffff1673ffffffffffffffffffffffffffffffffffffffff1681526020019081526020016000206000828254610ff49190612083565b9250508190555061104a333083600360009054906101000a900473ffffffffffffffffffffffffffffffffffffffff1673ffffffffffffffffffffffffffffffffffffffff16611610909392919063ffffffff16565b3373ffffffffffffffffffffffffffffffffffffffff167f9e71bc8eea02a63969f509818f2dafb9254532904319f9dbda79b67bd34a5f3d826040516110909190612036565b60405180910390a26001808190555050565b600260015414156110e8576040517f08c379a00000000000000000000000000000000000000000000000000000000081526004016110df90612016565b60405180910390fd5b600260018190555080600c60003373ffffffffffffffffffffffffffffffffffffffff1673ffffffffffffffffffffffffffffffffffffffff168152602001908152602001600020541015611172576040517f08c379a000000000000000000000000000000000000000000000000000000000815260040161116990611f36565b60405180910390fd5b61117b33611399565b806009600082825461118d9190612164565b9250508190555080600c60003373ffffffffffffffffffffffffffffffffffffffff1673ffffffffffffffffffffffffffffffffffffffff16815260200190815260200160002060008282546111e39190612164565b925050819055506112373382600360009054906101000a900473ffffffffffffffffffffffffffffffffffffffff1673ffffffffffffffffffffffffffffffffffffffff166114e09092919063ffffffff16565b3373ffffffffffffffffffffffffffffffffffffffff167f7084f5476618d8e60b11ef0d7d3f06914655adb8793e28ff7f018d4c76d505d58260405161127d9190612036565b60405180910390a26001808190555050565b60055481565b61129d611566565b73ffffffffffffffffffffffffffffffffffffffff166112bb610dd1565b73ffffffffffffffffffffffffffffffffffffffff1614611311576040517f08c379a000000000000000000000000000000000000000000000000000000000815260040161130890611fb6565b60405180910390fd5b600073ffffffffffffffffffffffffffffffffffffffff168173ffffffffffffffffffffffffffffffffffffffff161415611381576040517f08c379a000000000000000000000000000000000000000000000000000000000815260040161137890611ef6565b60405180910390fd5b61138a81611699565b50565b60045481565b60075481565b600060045443106113ac576004546113ae565b435b905060006009541461140e57600954670de0b6b3a7640000600554600754846113d79190612164565b6113e1919061210a565b6113eb919061210a565b6113f591906120d9565b600860008282546114069190612083565b925050819055505b80600781905550600073ffffffffffffffffffffffffffffffffffffffff168273ffffffffffffffffffffffffffffffffffffffff16146114dc57611452826103b6565b600b60008473ffffffffffffffffffffffffffffffffffffffff1673ffffffffffffffffffffffffffffffffffffffff16815260200190815260200160002081905550600854600a60008473ffffffffffffffffffffffffffffffffffffffff1673ffffffffffffffffffffffffffffffffffffffff168152602001908152602001600020819055505b5050565b6115618363a9059cbb60e01b84846040516024016114ff929190611e55565b604051602081830303815290604052907bffffffffffffffffffffffffffffffffffffffffffffffffffffffff19166020820180517bffffffffffffffffffffffffffffffffffffffffffffffffffffffff8381831617835250505050611800565b505050565b600033905090565b611576610b49565b6115b5576040517f08c379a00000000000000000000000000000000000000000000000000000000081526004016115ac90611ed6565b60405180910390fd5b6000600260006101000a81548160ff0219169083151502179055507f5db9ee0a495bf2e6ff9c91a7834c1ba4fdd244a5e8aa4e537bd38aeae4b073aa6115f9611566565b6040516116069190611e03565b60405180910390a1565b611693846323b872dd60e01b85858560405160240161163193929190611e1e565b604051602081830303815290604052907bffffffffffffffffffffffffffffffffffffffffffffffffffffffff19166020820180517bffffffffffffffffffffffffffffffffffffffffffffffffffffffff8381831617835250505050611800565b50505050565b60008060009054906101000a900473ffffffffffffffffffffffffffffffffffffffff169050816000806101000a81548173ffffffffffffffffffffffffffffffffffffffff021916908373ffffffffffffffffffffffffffffffffffffffff1602179055508173ffffffffffffffffffffffffffffffffffffffff168173ffffffffffffffffffffffffffffffffffffffff167f8be0079c531659141344cd1fd0a4f28419497f9722a3daafe3b4186f6b6457e060405160405180910390a35050565b611765610b49565b156117a5576040517f08c379a000000000000000000000000000000000000000000000000000000000815260040161179c90611f96565b60405180910390fd5b6001600260006101000a81548160ff0219169083151502179055507f62e78cea01bee320cd4e420270b5ea74000d11b0c9f74754ebdbfc544b05a2586117e9611566565b6040516117f69190611e03565b60405180910390a1565b6000611862826040518060400160405280602081526020017f5361666545524332303a206c6f772d6c6576656c2063616c6c206661696c65648152508573ffffffffffffffffffffffffffffffffffffffff166118c79092919063ffffffff16565b90506000815111156118c257808060200190518101906118829190611afe565b6118c1576040517f08c379a00000000000000000000000000000000000000000000000000000000081526004016118b890611ff6565b60405180910390fd5b5b505050565b60606118d684846000856118df565b90509392505050565b606082471015611924576040517f08c379a000000000000000000000000000000000000000000000000000000000815260040161191b90611f56565b60405180910390fd5b61192d856119f3565b61196c576040517f08c379a000000000000000000000000000000000000000000000000000000000815260040161196390611fd6565b60405180910390fd5b6000808673ffffffffffffffffffffffffffffffffffffffff1685876040516119959190611dec565b60006040518083038185875af1925050503d80600081146119d2576040519150601f19603f3d011682016040523d82523d6000602084013e6119d7565b606091505b50915091506119e7828286611a16565b92505050949350505050565b6000808273ffffffffffffffffffffffffffffffffffffffff163b119050919050565b60608315611a2657829050611a76565b600083511115611a395782518084602001fd5b816040517f08c379a0000000000000000000000000000000000000000000000000000000008152600401611a6d9190611eb4565b60405180910390fd5b9392505050565b600081359050611a8c8161253e565b92915050565b600081519050611aa181612555565b92915050565b600081359050611ab68161256c565b92915050565b600081519050611acb8161256c565b92915050565b600060208284031215611ae757611ae66122a7565b5b6000611af584828501611a7d565b91505092915050565b600060208284031215611b1457611b136122a7565b5b6000611b2284828501611a92565b91505092915050565b600060208284031215611b4157611b406122a7565b5b6000611b4f84828501611aa7565b91505092915050565b600060208284031215611b6e57611b6d6122a7565b5b6000611b7c84828501611abc565b91505092915050565b60008060408385031215611b9c57611b9b6122a7565b5b6000611baa85828601611aa7565b9250506020611bbb85828601611aa7565b9150509250929050565b611bce81612198565b82525050565b611bdd816121aa565b82525050565b6000611bee82612051565b611bf88185612067565b9350611c08818560208601612216565b80840191505092915050565b611c1d816121e0565b82525050565b6000611c2e8261205c565b611c388185612072565b9350611c48818560208601612216565b611c51816122ac565b840191505092915050565b6000611c69601483612072565b9150611c74826122bd565b602082019050919050565b6000611c8c602683612072565b9150611c97826122e6565b604082019050919050565b6000611caf604e83612072565b9150611cba82612335565b606082019050919050565b6000611cd2601483612072565b9150611cdd826123aa565b602082019050919050565b6000611cf5602683612072565b9150611d00826123d3565b604082019050919050565b6000611d18601b83612072565b9150611d2382612422565b602082019050919050565b6000611d3b601083612072565b9150611d468261244b565b602082019050919050565b6000611d5e602083612072565b9150611d6982612474565b602082019050919050565b6000611d81601d83612072565b9150611d8c8261249d565b602082019050919050565b6000611da4602a83612072565b9150611daf826124c6565b604082019050919050565b6000611dc7601f83612072565b9150611dd282612515565b602082019050919050565b611de6816121d6565b82525050565b6000611df88284611be3565b915081905092915050565b6000602082019050611e186000830184611bc5565b92915050565b6000606082019050611e336000830186611bc5565b611e406020830185611bc5565b611e4d6040830184611ddd565b949350505050565b6000604082019050611e6a6000830185611bc5565b611e776020830184611ddd565b9392505050565b6000602082019050611e936000830184611bd4565b92915050565b6000602082019050611eae6000830184611c14565b92915050565b60006020820190508181036000830152611ece8184611c23565b905092915050565b60006020820190508181036000830152611eef81611c5c565b9050919050565b60006020820190508181036000830152611f0f81611c7f565b9050919050565b60006020820190508181036000830152611f2f81611ca2565b9050919050565b60006020820190508181036000830152611f4f81611cc5565b9050919050565b60006020820190508181036000830152611f6f81611ce8565b9050919050565b60006020820190508181036000830152611f8f81611d0b565b9050919050565b60006020820190508181036000830152611faf81611d2e565b9050919050565b60006020820190508181036000830152611fcf81611d51565b9050919050565b60006020820190508181036000830152611fef81611d74565b9050919050565b6000602082019050818103600083015261200f81611d97565b9050919050565b6000602082019050818103600083015261202f81611dba565b9050919050565b600060208201905061204b6000830184611ddd565b92915050565b600081519050919050565b600081519050919050565b600081905092915050565b600082825260208201905092915050565b600061208e826121d6565b9150612099836121d6565b9250827fffffffffffffffffffffffffffffffffffffffffffffffffffffffffffffffff038211156120ce576120cd612249565b5b828201905092915050565b60006120e4826121d6565b91506120ef836121d6565b9250826120ff576120fe612278565b5b828204905092915050565b6000612115826121d6565b9150612120836121d6565b9250817fffffffffffffffffffffffffffffffffffffffffffffffffffffffffffffffff048311821515161561215957612158612249565b5b828202905092915050565b600061216f826121d6565b915061217a836121d6565b92508282101561218d5761218c612249565b5b828203905092915050565b60006121a3826121b6565b9050919050565b60008115159050919050565b600073ffffffffffffffffffffffffffffffffffffffff82169050919050565b6000819050919050565b60006121eb826121f2565b9050919050565b60006121fd82612204565b9050919050565b600061220f826121b6565b9050919050565b60005b83811015612234578082015181840152602081019050612219565b83811115612243576000848401525b50505050565b7f4e487b7100000000000000000000000000000000000000000000000000000000600052601160045260246000fd5b7f4e487b7100000000000000000000000000000000000000000000000000000000600052601260045260246000fd5b600080fd5b6000601f19601f8301169050919050565b7f5061757361626c653a206e6f7420706175736564000000000000000000000000600082015250565b7f4f776e61626c653a206e6577206f776e657220697320746865207a65726f206160008201527f6464726573730000000000000000000000000000000000000000000000000000602082015250565b7f43757272656e7420726577617264732070726f6772616d206d7573742062652060008201527f636f6d706c657465206265666f72652061637469766174696e67206e6577207260208201527f6577617264732070726f6772616d000000000000000000000000000000000000604082015250565b7f496e73756666696369656e742062616c616e6365000000000000000000000000600082015250565b7f416464726573733a20696e73756666696369656e742062616c616e636520666f60008201527f722063616c6c0000000000000000000000000000000000000000000000000000602082015250565b7f496e73756666696369656e74207265776172642062616c616e63650000000000600082015250565b7f5061757361626c653a2070617573656400000000000000000000000000000000600082015250565b7f4f776e61626c653a2063616c6c6572206973206e6f7420746865206f776e6572600082015250565b7f416464726573733a2063616c6c20746f206e6f6e2d636f6e7472616374000000600082015250565b7f5361666545524332303a204552433230206f7065726174696f6e20646964206e60008201527f6f74207375636365656400000000000000000000000000000000000000000000602082015250565b7f5265656e7472616e637947756172643a207265656e7472616e742063616c6c00600082015250565b61254781612198565b811461255257600080fd5b50565b61255e816121aa565b811461256957600080fd5b50565b612575816121d6565b811461258057600080fd5b5056fea264697066735822122095ca65562ae5d695dd8aaca24f165c8810c67ab8d49960c490aa89c33aa88f2864736f6c63430008070033",
  "linkReferences": {},
  "deployedLinkReferences": {}
}