{
  "contractName": "Aggregate",
  "abi": [
    {
      "inputs": [
        {
          "internalType": "string",
          "name": "name_",
          "type": "string"
        },
        {
          "internalType": "string",
          "name": "symbol_",
          "type": "string"
        },
        {
          "internalType": "uint256",
          "name": "supply_",
          "type": "uint256"
        },
        {
          "internalType": "address",
          "name": "marketing_",
          "type": "address"
        },
        {
          "internalType": "address[]",
          "name": "acquisition_",
          "type": "address[]"
        }
      ],
      "stateMutability": "nonpayable",
      "name": "Constructor",
      "type": "constructor"
    },
    {
      "anonymous": false,
      "inputs": [
        {
          "indexed": true,
          "internalType": "address",
          "name": "owner",
          "type": "address"
        },
        {
          "indexed": true,
          "internalType": "address",
          "name": "spender",
          "type": "address"
        },
        {
          "indexed": false,
          "internalType": "uint256",
          "name": "value",
          "type": "uint256"
        }
      ],
      "name": "Approval",
      "type": "event"
    },
    {
      "anonymous": false,
      "inputs": [
        {
          "indexed": true,
          "internalType": "address",
          "name": "previousOwner",
          "type": "address"
        },
        {
          "indexed": true,
          "internalType": "address",
          "name": "newOwner",
          "type": "address"
        }
      ],
      "name": "OwnershipTransferred",
      "type": "event"
    },
    {
      "anonymous": false,
      "inputs": [
        {
          "indexed": false,
          "internalType": "address",
          "name": "account",
          "type": "address"
        }
      ],
      "name": "Paused",
      "type": "event"
    },
    {
      "anonymous": false,
      "inputs": [
        {
          "indexed": true,
          "internalType": "address",
          "name": "from",
          "type": "address"
        },
        {
          "indexed": true,
          "internalType": "address",
          "name": "to",
          "type": "address"
        },
        {
          "indexed": false,
          "internalType": "uint256",
          "name": "value",
          "type": "uint256"
        }
      ],
      "name": "Transfer",
      "type": "event"
    },
    {
      "anonymous": false,
      "inputs": [
        {
          "indexed": false,
          "internalType": "address",
          "name": "account",
          "type": "address"
        }
      ],
      "name": "Unpaused",
      "type": "event"
    },
    {
      "inputs": [
        {
          "internalType": "address",
          "name": "owner",
          "type": "address"
        },
        {
          "internalType": "address",
          "name": "spender",
          "type": "address"
        }
      ],
      "name": "allowance",
      "outputs": [
        {
          "internalType": "uint256",
          "name": "",
          "type": "uint256"
        }
      ],
      "stateMutability": "view",
      "type": "function"
    },
    {
      "inputs": [
        {
          "internalType": "address",
          "name": "spender",
          "type": "address"
        },
        {
          "internalType": "uint256",
          "name": "amount",
          "type": "uint256"
        }
      ],
      "name": "approve",
      "outputs": [
        {
          "internalType": "bool",
          "name": "",
          "type": "bool"
        }
      ],
      "stateMutability": "nonpayable",
      "type": "function"
    },
    {
      "inputs": [
        {
          "internalType": "address",
          "name": "spender",
          "type": "address"
        },
        {
          "internalType": "uint256",
          "name": "subtractedValue",
          "type": "uint256"
        }
      ],
      "name": "decreaseAllowance",
      "outputs": [
        {
          "internalType": "bool",
          "name": "",
          "type": "bool"
        }
      ],
      "stateMutability": "nonpayable",
      "type": "function"
    },
    {
      "inputs": [
        {
          "internalType": "address",
          "name": "spender",
          "type": "address"
        },
        {
          "internalType": "uint256",
          "name": "addedValue",
          "type": "uint256"
        }
      ],
      "name": "increaseAllowance",
      "outputs": [
        {
          "internalType": "bool",
          "name": "",
          "type": "bool"
        }
      ],
      "stateMutability": "nonpayable",
      "type": "function"
    },
    {
      "inputs": [],
      "name": "name",
      "outputs": [
        {
          "internalType": "string",
          "name": "",
          "type": "string"
        }
      ],
      "stateMutability": "view",
      "type": "function"
    },
    {
      "inputs": [],
      "name": "owner",
      "outputs": [
        {
          "internalType": "address",
          "name": "",
          "type": "address"
        }
      ],
      "stateMutability": "view",
      "type": "function"
    },
    {
      "inputs": [],
      "name": "paused",
      "outputs": [
        {
          "internalType": "bool",
          "name": "status",
          "type": "bool"
        }
      ],
      "stateMutability": "view",
      "type": "function"
    },
    {
      "inputs": [],
      "name": "renounceOwnership",
      "outputs": [],
      "stateMutability": "nonpayable",
      "type": "function"
    },
    {
      "inputs": [],
      "name": "symbol",
      "outputs": [
        {
          "internalType": "string",
          "name": "",
          "type": "string"
        }
      ],
      "stateMutability": "view",
      "type": "function"
    },
    {
      "inputs": [
        {
          "internalType": "address",
          "name": "recipient",
          "type": "address"
        },
        {
          "internalType": "uint256",
          "name": "amount",
          "type": "uint256"
        }
      ],
      "name": "transfer",
      "outputs": [
        {
          "internalType": "bool",
          "name": "",
          "type": "bool"
        }
      ],
      "stateMutability": "nonpayable",
      "type": "function"
    },
    {
      "inputs": [
        {
          "internalType": "address",
          "name": "sender",
          "type": "address"
        },
        {
          "internalType": "address",
          "name": "recipient",
          "type": "address"
        },
        {
          "internalType": "uint256",
          "name": "amount",
          "type": "uint256"
        }
      ],
      "name": "transferFrom",
      "outputs": [
        {
          "internalType": "bool",
          "name": "",
          "type": "bool"
        }
      ],
      "stateMutability": "nonpayable",
      "type": "function"
    },
    {
      "inputs": [
        {
          "internalType": "address",
          "name": "newOwner",
          "type": "address"
        }
      ],
      "name": "transferOwnership",
      "outputs": [],
      "stateMutability": "nonpayable",
      "type": "function"
    },
    {
      "inputs": [],
      "name": "totalSupply",
      "outputs": [
        {
          "internalType": "uint256",
          "name": "",
          "type": "uint256"
        }
      ],
      "stateMutability": "view",
      "type": "function"
    },
    {
      "inputs": [
        {
          "internalType": "address",
          "name": "account",
          "type": "address"
        }
      ],
      "name": "balanceOf",
      "outputs": [
        {
          "internalType": "uint256",
          "name": "",
          "type": "uint256"
        }
      ],
      "stateMutability": "view",
      "type": "function"
    },
    {
      "inputs": [],
      "name": "decimals",
      "outputs": [
        {
          "internalType": "uint8",
          "name": "",
          "type": "uint8"
        }
      ],
      "stateMutability": "pure",
      "type": "function"
    },
    {
      "inputs": [
        {
          "internalType": "uint256",
          "name": "rAmount",
          "type": "uint256"
        }
      ],
      "name": "tokenFromReflection",
      "outputs": [
        {
          "internalType": "uint256",
          "name": "",
          "type": "uint256"
        }
      ],
      "stateMutability": "view",
      "type": "function"
    },
    {
      "inputs": [
        {
          "internalType": "address",
          "name": "account",
          "type": "address"
        }
      ],
      "name": "isExcluded",
      "outputs": [
        {
          "internalType": "bool",
          "name": "",
          "type": "bool"
        }
      ],
      "stateMutability": "view",
      "type": "function"
    },
    {
      "inputs": [],
      "name": "getMarketingWallet",
      "outputs": [
        {
          "internalType": "address",
          "name": "",
          "type": "address"
        }
      ],
      "stateMutability": "view",
      "type": "function"
    },
    {
      "inputs": [
        {
          "internalType": "uint256",
          "name": "index",
          "type": "uint256"
        }
      ],
      "name": "getAcquisitionWallet",
      "outputs": [
        {
          "internalType": "address",
          "name": "",
          "type": "address"
        }
      ],
      "stateMutability": "view",
      "type": "function"
    },
    {
      "inputs": [],
      "name": "totalFees",
      "outputs": [
        {
          "internalType": "uint256",
          "name": "",
          "type": "uint256"
        }
      ],
      "stateMutability": "view",
      "type": "function"
    },
    {
      "inputs": [
        {
          "internalType": "address",
          "name": "exchangePair",
          "type": "address"
        }
      ],
      "name": "setExchange",
      "outputs": [],
      "stateMutability": "nonpayable",
      "type": "function"
    },
    {
      "inputs": [
        {
          "internalType": "address",
          "name": "exchangePair",
          "type": "address"
        }
      ],
      "name": "removeExchange",
      "outputs": [],
      "stateMutability": "nonpayable",
      "type": "function"
    },
    {
      "inputs": [
        {
          "internalType": "address",
          "name": "newAddress",
          "type": "address"
        }
      ],
      "name": "changeMarketing",
      "outputs": [],
      "stateMutability": "nonpayable",
      "type": "function"
    },
    {
      "inputs": [
        {
          "internalType": "uint256",
          "name": "index",
          "type": "uint256"
        },
        {
          "internalType": "address",
          "name": "newAddress",
          "type": "address"
        }
      ],
      "name": "changeAcquisition",
      "outputs": [],
      "stateMutability": "nonpayable",
      "type": "function"
    },
    {
      "inputs": [
        {
          "internalType": "uint8",
          "name": "reflectFee",
          "type": "uint8"
        },
        {
          "internalType": "uint8",
          "name": "marketingFee",
          "type": "uint8"
        },
        {
          "internalType": "uint8",
          "name": "acquisitionFee",
          "type": "uint8"
        }
      ],
      "name": "setBuyFees",
      "outputs": [],
      "stateMutability": "nonpayable",
      "type": "function"
    },
    {
      "inputs": [
        {
          "internalType": "uint8",
          "name": "reflectFee",
          "type": "uint8"
        },
        {
          "internalType": "uint8",
          "name": "marketingFee",
          "type": "uint8"
        },
        {
          "internalType": "uint8",
          "name": "acquisitionFee",
          "type": "uint8"
        }
      ],
      "name": "setSellFees",
      "outputs": [],
      "stateMutability": "nonpayable",
      "type": "function"
    },
    {
      "inputs": [
        {
          "internalType": "address",
          "name": "account",
          "type": "address"
        }
      ],
      "name": "excludeAccount",
      "outputs": [],
      "stateMutability": "nonpayable",
      "type": "function"
    },
    {
      "inputs": [
        {
          "internalType": "address",
          "name": "account",
          "type": "address"
        }
      ],
      "name": "includeAccount",
      "outputs": [],
      "stateMutability": "nonpayable",
      "type": "function"
    },
    {
      "inputs": [],
      "name": "lockToken",
      "outputs": [],
      "stateMutability": "nonpayable",
      "type": "function"
    },
    {
      "inputs": [],
      "name": "unlockToken",
      "outputs": [],
      "stateMutability": "nonpayable",
      "type": "function"
    }
  ],
  "bytecode": "0x60806040523480156200001157600080fd5b5060405162002b9138038062002b91833981016040819052620000349162000649565b6005805460ff19169055620000493362000497565b84516200005e906003906020880190620004f1565b50835162000074906004906020870190620004f1565b506200008383612710620007d8565b600a81905562000096906000196200086f565b620000a490600019620007fa565b600b556014805465ffffffffffff191665030105070101179055600d80546001600160a01b0319166001600160a01b03841617905560005b60058110156200014d57818181518110620000fb57620000fb620008b2565b6020026020010151600e8260058110620001195762000119620008b2565b0180546001600160a01b0319166001600160a01b039290921691909117905580620001448162000851565b915050620000dc565b506064600a54605f620001619190620007d8565b6200016d9190620007c1565b33600090815260076020526040812080549091906200018e908490620007a6565b9091555050600b54620001a490606490620007c1565b620001b190605f620007d8565b3360009081526006602052604081208054909190620001d2908490620007a6565b909155505033600081815260076020908152604080832054905190815260008051602062002b71833981519152910160405180910390a36064600a5460026200021c9190620007d8565b620002289190620007c1565b600d546001600160a01b03166000908152600760205260408120805490919062000254908490620007a6565b9091555050600b546200026a90606490620007c1565b62000277906002620007d8565b600d546001600160a01b031660009081526006602052604081208054909190620002a3908490620007a6565b9091555050600d54600a546001600160a01b039091169060009060008051602062002b7183398151915290606490620002de906002620007d8565b620002ea9190620007c1565b60405190815260200160405180910390a360005b60058110156200048b5760056064600a5460036200031d9190620007d8565b620003299190620007c1565b620003359190620007c1565b60076000600e84600581106200034f576200034f620008b2565b01546001600160a01b031681526020810191909152604001600090812080549091906200037e908490620007a6565b9091555050600b546005906200039790606490620007c1565b620003a4906003620007d8565b620003b09190620007c1565b60066000600e8460058110620003ca57620003ca620008b2565b01546001600160a01b03168152602081019190915260400160009081208054909190620003f9908490620007a6565b90915550600e90508160058110620004155762000415620008b2565b0154600a546001600160a01b039091169060009060008051602062002b71833981519152906005906064906200044d906003620007d8565b620004599190620007c1565b620004659190620007c1565b60405190815260200160405180910390a380620004828162000851565b915050620002fe565b505050505050620008de565b600580546001600160a01b03838116610100818102610100600160a81b031985161790945560405193909204169182907f8be0079c531659141344cd1fd0a4f28419497f9722a3daafe3b4186f6b6457e090600090a35050565b828054620004ff9062000814565b90600052602060002090601f0160209004810192826200052357600085556200056e565b82601f106200053e57805160ff19168380011785556200056e565b828001600101855582156200056e579182015b828111156200056e57825182559160200191906001019062000551565b506200057c92915062000580565b5090565b5b808211156200057c576000815560010162000581565b80516001600160a01b0381168114620005af57600080fd5b919050565b600082601f830112620005c657600080fd5b81516001600160401b03811115620005e257620005e2620008c8565b6020620005f8601f8301601f1916820162000773565b82815285828487010111156200060d57600080fd5b60005b838110156200062d57858101830151828201840152820162000610565b838111156200063f5760008385840101525b5095945050505050565b600080600080600060a086880312156200066257600080fd5b85516001600160401b03808211156200067a57600080fd5b6200068889838a01620005b4565b9650602091508188015181811115620006a057600080fd5b620006ae8a828b01620005b4565b96505060408801519450620006c66060890162000597565b9350608088015181811115620006db57600080fd5b8801601f81018a13620006ed57600080fd5b805182811115620007025762000702620008c8565b8060051b92506200071584840162000773565b8181528481019083860185850187018e10156200073157600080fd5b600095505b838610156200075f576200074a8162000597565b83526001959095019491860191860162000736565b508096505050505050509295509295909350565b604051601f8201601f191681016001600160401b03811182821017156200079e576200079e620008c8565b604052919050565b60008219821115620007bc57620007bc62000886565b500190565b600082620007d357620007d36200089c565b500490565b6000816000190483118215151615620007f557620007f562000886565b500290565b6000828210156200080f576200080f62000886565b500390565b600181811c908216806200082957607f821691505b602082108114156200084b57634e487b7160e01b600052602260045260246000fd5b50919050565b600060001982141562000868576200086862000886565b5060010190565b6000826200088157620008816200089c565b500690565b634e487b7160e01b600052601160045260246000fd5b634e487b7160e01b600052601260045260246000fd5b634e487b7160e01b600052603260045260246000fd5b634e487b7160e01b600052604160045260246000fd5b61228380620008ee6000396000f3fe608060405234801561001057600080fd5b50600436106101da5760003560e01c80638d7dd83711610104578063b0872744116100a2578063e22b62de11610071578063e22b62de146103fa578063f2cc0c181461040d578063f2fde38b14610420578063f84354f11461043357600080fd5b8063b08727441461037a578063bca7a9e21461038d578063cba0e99614610395578063dd62ed3e146103c157600080fd5b80638e0be369116100de5780638e0be3691461033957806395d89b411461034c578063a457c2d714610354578063a9059cbb1461036757600080fd5b80638d7dd837146102fd5780638da5cb5b146103105780638dccb26c1461032657600080fd5b80632d8381191161017c5780635c975abb1161014b5780635c975abb146102c457806367b1f5df146102cf57806370a08231146102e2578063715018a6146102f557600080fd5b80632d8381191461027c578063313ce5671461028f578063395093511461029e57806350be7cdb146102b157600080fd5b806318160ddd116101b857806318160ddd1461023257806318a24b5b1461023a5780631d4e49eb1461024457806323b872dd1461026957600080fd5b806306fdde03146101df578063095ea7b3146101fd57806313114a9d14610220575b600080fd5b6101e7610446565b6040516101f49190612035565b60405180910390f35b61021061020b366004611f8c565b6104d8565b60405190151581526020016101f4565b600c545b6040519081526020016101f4565b600a54610224565b6102426104ee565b005b600d546001600160a01b03165b6040516001600160a01b0390911681526020016101f4565b610210610277366004611f50565b610531565b61022461028a366004611fb6565b6105e0565b604051600481526020016101f4565b6102106102ac366004611f8c565b61065f565b6102426102bf366004611ff2565b610696565b60055460ff16610210565b6102426102dd366004611f02565b610733565b6102246102f0366004611f02565b6107f0565b610242610855565b61024261030b366004611f02565b61088f565b60055461010090046001600160a01b0316610251565b610242610334366004611fcf565b610937565b610242610347366004611f02565b610a3a565b6101e7610aea565b610210610362366004611f8c565b610af9565b610210610375366004611f8c565b610b94565b610251610388366004611fb6565b610ba1565b610242610c07565b6102106103a3366004611f02565b6001600160a01b031660009081526008602052604090205460ff1690565b6102246103cf366004611f1d565b6001600160a01b03918216600090815260016020908152604080832093909416825291909152205490565b610242610408366004611ff2565b610c3f565b61024261041b366004611f02565b610cf4565b61024261042e366004611f02565b610e65565b610242610441366004611f02565b610f06565b6060600380546104559061219f565b80601f01602080910402602001604051908101604052809291908181526020018280546104819061219f565b80156104ce5780601f106104a3576101008083540402835291602001916104ce565b820191906000526020600020905b8154815290600101906020018083116104b157829003601f168201915b5050505050905090565b60006104e53384846110ca565b50600192915050565b6005546001600160a01b036101009091041633146105275760405162461bcd60e51b815260040161051e906120d5565b60405180910390fd5b61052f6111ee565b565b6001600160a01b0383166000908152600160209081526040808320338452909152812054828110156105b65760405162461bcd60e51b815260206004820152602860248201527f45524332303a207472616e7366657220616d6f756e74206578636565647320616044820152676c6c6f77616e636560c01b606482015260840161051e565b6105c1858585611281565b6105d585336105d08685612188565b6110ca565b506001949350505050565b6000600b548211156106425760405162461bcd60e51b815260206004820152602560248201527f416d6f756e74206d757374206265206c657373207468616e20746f74616c20736044820152647570706c7960d81b606482015260840161051e565b600061064c6114cb565b90506106588184612147565b9392505050565b3360008181526001602090815260408083206001600160a01b038716845290915281205490916104e59185906105d090869061210a565b6005546001600160a01b036101009091041633146106c65760405162461bcd60e51b815260040161051e906120d5565b6064816106d38486612122565b6106dd9190612122565b60ff16106106fd5760405162461bcd60e51b815260040161051e9061208a565b6014805460ff94851661ffff1990911617610100938516939093029290921762ff00001916620100009190931602919091179055565b6005546001600160a01b036101009091041633146107635760405162461bcd60e51b815260040161051e906120d5565b6001600160a01b03811660009081526013602052604090205460ff16156107cc5760405162461bcd60e51b815260206004820152601860248201527f4164647265737320616c72656164792045786368616e67650000000000000000604482015260640161051e565b6001600160a01b03166000908152601360205260409020805460ff19166001179055565b6001600160a01b03811660009081526008602052604081205460ff161561082d57506001600160a01b031660009081526007602052604090205490565b6001600160a01b03821660009081526006602052604090205461084f906105e0565b92915050565b6005546001600160a01b036101009091041633146108855760405162461bcd60e51b815260040161051e906120d5565b61052f60006114ee565b6005546001600160a01b036101009091041633146108bf5760405162461bcd60e51b815260040161051e906120d5565b6001600160a01b0381166109155760405162461bcd60e51b815260206004820152601e60248201527f416464726573732063616e6e6f74206265207a65726f20616464726573730000604482015260640161051e565b600d80546001600160a01b0319166001600160a01b0392909216919091179055565b6005546001600160a01b036101009091041633146109675760405162461bcd60e51b815260040161051e906120d5565b600582106109ad5760405162461bcd60e51b8152602060048201526013602482015272496e76616c696420696e6465782076616c756560681b604482015260640161051e565b6001600160a01b038116610a035760405162461bcd60e51b815260206004820152601e60248201527f416464726573732063616e6e6f74206265207a65726f20616464726573730000604482015260640161051e565b80600e8360058110610a1757610a17612237565b0180546001600160a01b0319166001600160a01b03929092169190911790555050565b6005546001600160a01b03610100909104163314610a6a5760405162461bcd60e51b815260040161051e906120d5565b6001600160a01b03811660009081526013602052604090205460ff16610ac95760405162461bcd60e51b815260206004820152601460248201527341646472657373206e6f742045786368616e676560601b604482015260640161051e565b6001600160a01b03166000908152601360205260409020805460ff19169055565b6060600480546104559061219f565b3360009081526001602090815260408083206001600160a01b038616845290915281205482811015610b7b5760405162461bcd60e51b815260206004820152602560248201527f45524332303a2064656372656173656420616c6c6f77616e63652062656c6f77604482015264207a65726f60d81b606482015260840161051e565b610b8a33856105d08685612188565b5060019392505050565b60006104e5338484611281565b600060058210610be35760405162461bcd60e51b815260206004820152600d60248201526c092dcecc2d8d2c840d2dcc8caf609b1b604482015260640161051e565b600e8260058110610bf657610bf6612237565b01546001600160a01b031692915050565b6005546001600160a01b03610100909104163314610c375760405162461bcd60e51b815260040161051e906120d5565b61052f611548565b6005546001600160a01b03610100909104163314610c6f5760405162461bcd60e51b815260040161051e906120d5565b606481610c7c8486612122565b610c869190612122565b60ff1610610ca65760405162461bcd60e51b815260040161051e9061208a565b6014805464ffff0000001916630100000060ff9586160264ff00000000191617640100000000938516939093029290921765ff00000000001916650100000000009190931602919091179055565b6005546001600160a01b03610100909104163314610d245760405162461bcd60e51b815260040161051e906120d5565b6001600160a01b03811660009081526008602052604090205460ff1615610d8d5760405162461bcd60e51b815260206004820152601860248201527f4163636f756e7420616c7265616479206578636c756465640000000000000000604482015260640161051e565b600a54610d99826107f0565b10610de65760405162461bcd60e51b815260206004820152601b60248201527f43616e6e6f74206578636c75646520746f74616c20737570706c790000000000604482015260640161051e565b610def816107f0565b6001600160a01b039091166000818152600760209081526040808320949094556009805460018181019092557f6e1540171b6c0c960b71a7020d9f60077f6af931a8bbf590da0223dacf75c7af0180546001600160a01b031916851790559282526008905291909120805460ff19169091179055565b6005546001600160a01b03610100909104163314610e955760405162461bcd60e51b815260040161051e906120d5565b6001600160a01b038116610efa5760405162461bcd60e51b815260206004820152602660248201527f4f776e61626c653a206e6577206f776e657220697320746865207a65726f206160448201526564647265737360d01b606482015260840161051e565b610f03816114ee565b50565b6005546001600160a01b03610100909104163314610f365760405162461bcd60e51b815260040161051e906120d5565b6001600160a01b03811660009081526008602052604090205460ff16610f9e5760405162461bcd60e51b815260206004820152601860248201527f4163636f756e7420616c726561647920696e636c756465640000000000000000604482015260640161051e565b60005b6009548110156110c657816001600160a01b031660098281548110610fc857610fc8612237565b6000918252602090912001546001600160a01b031614156110b45760098054610ff390600190612188565b8154811061100357611003612237565b600091825260209091200154600980546001600160a01b03909216918390811061102f5761102f612237565b9060005260206000200160006101000a8154816001600160a01b0302191690836001600160a01b03160217905550600980548061106e5761106e612221565b60008281526020808220830160001990810180546001600160a01b03191690559092019092556001600160a01b03841682526008905260409020805460ff191690555050565b806110be816121da565b915050610fa1565b5050565b6001600160a01b03831661112c5760405162461bcd60e51b8152602060048201526024808201527f45524332303a20617070726f76652066726f6d20746865207a65726f206164646044820152637265737360e01b606482015260840161051e565b6001600160a01b03821661118d5760405162461bcd60e51b815260206004820152602260248201527f45524332303a20617070726f766520746f20746865207a65726f206164647265604482015261737360f01b606482015260840161051e565b6001600160a01b0383811660008181526001602090815260408083209487168084529482529182902085905590518481527f8c5be1e5ebec7d5bd14f71427d1e84f3dd0314c0f7b2291e5b200ac8c7c3b925910160405180910390a3505050565b60055460ff166112375760405162461bcd60e51b815260206004820152601460248201527314185d5cd8589b194e881b9bdd081c185d5cd95960621b604482015260640161051e565b6005805460ff191690557f5db9ee0a495bf2e6ff9c91a7834c1ba4fdd244a5e8aa4e537bd38aeae4b073aa335b6040516001600160a01b03909116815260200160405180910390a1565b60055460ff16156112c75760405162461bcd60e51b815260206004820152601060248201526f14185d5cd8589b194e881c185d5cd95960821b604482015260640161051e565b6001600160a01b03831661132b5760405162461bcd60e51b815260206004820152602560248201527f45524332303a207472616e736665722066726f6d20746865207a65726f206164604482015264647265737360d81b606482015260840161051e565b6001600160a01b03821661138d5760405162461bcd60e51b815260206004820152602360248201527f45524332303a207472616e7366657220746f20746865207a65726f206164647260448201526265737360e81b606482015260840161051e565b600081116113f65760405162461bcd60e51b815260206004820152603060248201527f45524332303a207472616e7366657220616d6f756e74206d757374206265206760448201526f726561746572207468616e207a65726f60801b606482015260840161051e565b6000611401846107f0565b9050818110156114625760405162461bcd60e51b815260206004820152602660248201527f45524332303a207472616e7366657220616d6f756e7420657863656564732062604482015265616c616e636560d01b606482015260840161051e565b6001600160a01b03841660009081526013602052604081205460ff161561148b575060016114b8565b6001600160a01b03841660009081526013602052604090205460ff16156114b4575060026114b8565b5060005b6114c4858585846115c3565b5050505050565b60008060006114d861191e565b90925090506114e78183612147565b9250505090565b600580546001600160a01b03838116610100818102610100600160a81b031985161790945560405193909204169182907f8be0079c531659141344cd1fd0a4f28419497f9722a3daafe3b4186f6b6457e090600090a35050565b60055460ff161561158e5760405162461bcd60e51b815260206004820152601060248201526f14185d5cd8589b194e881c185d5cd95960821b604482015260640161051e565b6005805460ff191660011790557f62e78cea01bee320cd4e420270b5ea74000d11b0c9f74754ebdbfc544b05a2586112643390565b6000806115d08484611aa1565b6001600160a01b038816600090815260086020526040902054919350915060ff161561165a5781516001600160a01b03871660009081526007602052604081208054909190611620908490612188565b909155505080516001600160a01b0387166000908152600660205260408120805490919061164f908490612188565b9091555061168a9050565b80516001600160a01b03871660009081526006602052604081208054909190611684908490612188565b90915550505b6001600160a01b03851660009081526008602052604090205460ff161561172357816020015160076000876001600160a01b03166001600160a01b0316815260200190815260200160002060008282546116e4919061210a565b90915550506020808201516001600160a01b038716600090815260069092526040822080549192909161171890849061210a565b909155506117629050565b806020015160066000876001600160a01b03166001600160a01b03168152602001908152602001600020600082825461175c919061210a565b90915550505b846001600160a01b0316866001600160a01b03167fddf252ad1be2c89b69c2b068fc378daa952ba7f163c4a11628f55a4df523b3ef84602001516040516117ab91815260200190565b60405180910390a360008360028111156117c7576117c761220b565b14611916576117de81604001518360400151611ae5565b6060820151156118f957600d546001600160a01b031660009081526008602052604090205460ff1615611879576060820151600d546001600160a01b03166000908152600760205260408120805490919061183a90849061210a565b90915550506060810151600d546001600160a01b03166000908152600660205260408120805490919061186e90849061210a565b909155506118ae9050565b6060810151600d546001600160a01b0316600090815260066020526040812080549091906118a890849061210a565b90915550505b600d5460608301516040519081526001600160a01b03918216918816907fddf252ad1be2c89b69c2b068fc378daa952ba7f163c4a11628f55a4df523b3ef9060200160405180910390a35b608082015115611916576119168683608001518360800151611b0b565b505050505050565b600b54600a546000918291825b600954811015611a705782600660006009848154811061194d5761194d612237565b60009182526020808320909101546001600160a01b0316835282019290925260400190205411806119b8575081600760006009848154811061199157611991612237565b60009182526020808320909101546001600160a01b03168352820192909252604001902054115b156119ce57600b54600a54945094505050509091565b60066000600983815481106119e5576119e5612237565b60009182526020808320909101546001600160a01b03168352820192909252604001902054611a149084612188565b92506007600060098381548110611a2d57611a2d612237565b60009182526020808320909101546001600160a01b03168352820192909252604001902054611a5c9083612188565b915080611a68816121da565b91505061192b565b50600a54600b54611a819190612147565b821015611a9857600b54600a549350935050509091565b90939092509050565b611aa9611ea6565b611ab1611ea6565b6000611abb6114cb565b90506000611ac98686611cbf565b90506000611ad78284611d7b565b919791965090945050505050565b81600b54611af39190612188565b600b55600c54611b0490829061210a565b600c555050565b6000611b18600584612147565b90506000611b27600584612147565b905060005b60058110156119165760086000600e8360058110611b4c57611b4c612237565b01546001600160a01b0316815260208101919091526040016000205460ff1615611c0b578260076000600e8460058110611b8857611b88612237565b01546001600160a01b03168152602081019190915260400160009081208054909190611bb590849061210a565b9091555082905060066000600e8460058110611bd357611bd3612237565b01546001600160a01b03168152602081019190915260400160009081208054909190611c0090849061210a565b90915550611c569050565b8160066000600e8460058110611c2357611c23612237565b01546001600160a01b03168152602081019190915260400160009081208054909190611c5090849061210a565b90915550505b600e8160058110611c6957611c69612237565b01546040518481526001600160a01b03918216918816907fddf252ad1be2c89b69c2b068fc378daa952ba7f163c4a11628f55a4df523b3ef9060200160405180910390a380611cb7816121da565b915050611b2c565b611cc7611ea6565b6000806000611cd585611e11565b925092509250611ce3611ea6565b8681526064611cf560ff861689612169565b611cff9190612147565b60408201526064611d1360ff851689612169565b611d1d9190612147565b60608201526064611d3160ff841689612169565b611d3b9190612147565b60808201819052606082015160408301518351611d589190612188565b611d629190612188565b611d6c9190612188565b60208201529695505050505050565b611d83611ea6565b611d8b611ea6565b8351611d98908490612169565b81526040840151611daa908490612169565b60408201526060840151611dbf908490612169565b60608201526080840151611dd4908490612169565b60808201819052606082015160408301518351611df19190612188565b611dfb9190612188565b611e059190612188565b60208201529392505050565b600080806001846002811115611e2957611e2961220b565b1415611e4f57505060145460ff8082169250610100820481169162010000900416611e9f565b6002846002811115611e6357611e6361220b565b1415611e9557505060145460ff6301000000820481169250640100000000820481169165010000000000900416611e9f565b5060009150819050805b9193909250565b6040518060a0016040528060008152602001600081526020016000815260200160008152602001600081525090565b80356001600160a01b0381168114611eec57600080fd5b919050565b803560ff81168114611eec57600080fd5b600060208284031215611f1457600080fd5b61065882611ed5565b60008060408385031215611f3057600080fd5b611f3983611ed5565b9150611f4760208401611ed5565b90509250929050565b600080600060608486031215611f6557600080fd5b611f6e84611ed5565b9250611f7c60208501611ed5565b9150604084013590509250925092565b60008060408385031215611f9f57600080fd5b611fa883611ed5565b946020939093013593505050565b600060208284031215611fc857600080fd5b5035919050565b60008060408385031215611fe257600080fd5b82359150611f4760208401611ed5565b60008060006060848603121561200757600080fd5b61201084611ef1565b925061201e60208501611ef1565b915061202c60408501611ef1565b90509250925092565b600060208083528351808285015260005b8181101561206257858101830151858201604001528201612046565b81811115612074576000604083870101525b50601f01601f1916929092016040019392505050565b6020808252602b908201527f546f74616c206665652070657263656e74616765206d757374206265206c657360408201526a73207468616e203130302560a81b606082015260800190565b6020808252818101527f4f776e61626c653a2063616c6c6572206973206e6f7420746865206f776e6572604082015260600190565b6000821982111561211d5761211d6121f5565b500190565b600060ff821660ff84168060ff0382111561213f5761213f6121f5565b019392505050565b60008261216457634e487b7160e01b600052601260045260246000fd5b500490565b6000816000190483118215151615612183576121836121f5565b500290565b60008282101561219a5761219a6121f5565b500390565b600181811c908216806121b357607f821691505b602082108114156121d457634e487b7160e01b600052602260045260246000fd5b50919050565b60006000198214156121ee576121ee6121f5565b5060010190565b634e487b7160e01b600052601160045260246000fd5b634e487b7160e01b600052602160045260246000fd5b634e487b7160e01b600052603160045260246000fd5b634e487b7160e01b600052603260045260246000fdfea264697066735822122015e5f899a19c958cfdf76b385ad390959c51c38e4b234a05ab9403337192a56464736f6c63430008070033ddf252ad1be2c89b69c2b068fc378daa952ba7f163c4a11628f55a4df523b3ef",
  "immutableReferences": {},
  "source": "\npragma solidity ^0.8.0;\n\nimport \"./ERC20.sol\";\nimport \"./Ownable.sol\";\nimport \"./Pausable.sol\";\n\n    /// @title A Fee on Transfer token with automatic reflections to holders.\n    /// @notice Token contract inheriting ERC20 standard with basic access\n    /// control and emergency pause mechanism. The token contract implements\n    /// Fee on Transfer distributed among marketing wallet, acquisition wallets,\n    /// and all token holders (via reflections) on Buy / Sell transactions\n    /// only. Wallet-to-wallet transfers do not incur a fee on transfer.\ncontract Aggregate is ERC20, Pausable, Ownable {\n\n    //--------------------------State Variables---------------------------------\n\n    struct FeeValues {\n          uint256 Amount;\n          uint256 TransferAmount;\n          uint256 ReflectFee;\n          uint256 MarketingFee;\n          uint256 AcquisitionFee;\n      }\n    enum MarketSide {\n      NONE,\n      BUY,\n      SELL\n    }\n\n    mapping (address => uint256) private _rOwned;\n    mapping (address => uint256) private _tOwned;\n    mapping (address => bool) private _isExcluded;\n    address[] private _excluded;\n    uint256 private _tTotal;\n    uint256 private _rTotal;\n    uint256 private _tFeeTotal;\n\n    address private _marketingWallet;\n    address[5] private _acquisitionWallets;\n    mapping (address => bool) private _isExchange;\n\n    uint8 private _buyFeeReflect;\n    uint8 private _buyFeeMarketing;\n    uint8 private _buyFeeAcquisition;\n    uint8 private _sellFeeReflect;\n    uint8 private _sellFeeMarketing;\n    uint8 private _sellFeeAcquisition;\n\n    //--------------------------Constructor-------------------------------------\n\n    /// @notice Sets the values for name, symbol, totalSupply, marketingWallet,\n    /// and acquisitionWallets. Initial allocation: 95% to Admin account (for\n    /// liquidity), 2% to Marketing wallet, 3% to Acquisition wallets.\n    /// @param name_ is token name.\n    /// @param symbol_ is token symbol.\n    /// @param supply_ is total token supply.\n    /// @param marketing_ is inital marketing wallet address.\n    /// @param acquisition_ is list of initial 5 acquisition wallet addresses.\n    constructor (\n      string memory name_,\n      string memory symbol_,\n      uint256 supply_,\n      address marketing_,\n      address[] memory acquisition_\n      ) {\n\n      _name = name_;\n      _symbol = symbol_;\n      _tTotal = supply_ * 10**4;\n      _rTotal = (~uint256(0) - (~uint256(0) % _tTotal));\n      _buyFeeReflect = 1;\n      _buyFeeMarketing = 1;\n      _buyFeeAcquisition = 7;\n      _sellFeeReflect = 5;\n      _sellFeeMarketing = 1;\n      _sellFeeAcquisition = 3;\n      _marketingWallet = marketing_;\n      for(uint i = 0; i < _acquisitionWallets.length; i++) {\n        _acquisitionWallets[i] = acquisition_[i];\n      }\n\n      _tOwned[_msgSender()] += _tTotal * 95 / 100;\n      _rOwned[_msgSender()] += _rTotal / 100 * 95;\n      emit Transfer(address(0), _msgSender(), _tOwned[_msgSender()]);\n\n      _tOwned[_marketingWallet] += _tTotal * 2 / 100;\n      _rOwned[_marketingWallet] += _rTotal / 100 * 2;\n      emit Transfer(address(0), _marketingWallet, _tTotal * 2 / 100);\n\n      for(uint i = 0; i < _acquisitionWallets.length; i++){\n        _tOwned[_acquisitionWallets[i]] +=\n          _tTotal * 3 / 100 / _acquisitionWallets.length;\n        _rOwned[_acquisitionWallets[i]] +=\n          _rTotal / 100 * 3 / _acquisitionWallets.length;\n\n        emit Transfer(\n          address(0),\n          _acquisitionWallets[i],\n          _tTotal * 3 / 100 / _acquisitionWallets.length\n          );\n      }\n\n    }\n\n    //--------------------------ERC20 Override Functions------------------------\n\n    /// @notice See {IERC20-totalSupply}.\n    /// @dev Overrides ERC20 totalSupply function.\n    /// @return supply_ is total token supply.\n    function totalSupply() public view override returns (uint256) {\n        return _tTotal;\n    }\n\n    /// @notice See {IERC20-balanceOf}.\n    /// @dev Overrides ERC20 balanceOf function. If account is excluded then\n    /// _tOwned balance is returned since that tracks token balance without\n    /// reflections. Otherwise, _rOwned balance is returned after scaling down\n    /// by reflection rate.\n    /// @param account is address to be checked for token balance.\n    /// @return balance_ is token balance of 'account'.\n    function balanceOf(address account) public view override returns (uint256) {\n        if (_isExcluded[account]) return _tOwned[account];\n        return tokenFromReflection(_rOwned[account]);\n    }\n\n    /// @notice Number of decimals for token representation.\n    /// @dev Overrides ERC20 decimals function. Value of 4 decimals is required\n    /// to maintain precision of arithmetic operations for reflection fee\n    /// distributions, given the token supply.\n    /// @return decimals_ is number of decimals for display purposes.\n    function decimals() public pure override returns (uint8) {\n        return 4;\n    }\n\n    /// @notice See {IERC20-transfer}.\n    /// @dev Overrides ERC20 _transfer function. Requires 'sender' and\n    /// 'recipient' to be non-zero address to prevent minting/burning and\n    /// non-zero transfer amount. Function determines transaction type 'BUY',\n    /// 'SELL', or 'NONE' depending on whether sender or recipient is exchange\n    /// pair address. Actual token transfer is delegated to {_transferStandard}.\n    /// Function is pausable by token administrator.\n    /// @param sender is address sending token.\n    /// @param recipient is address receiving token.\n    /// @param amount is number of tokens being transferred.\n    function _transfer(\n      address sender,\n      address recipient,\n      uint256 amount\n      ) internal override whenNotPaused {\n        require(sender != address(0), \"ERC20: transfer from the zero address\");\n        require(recipient != address(0), \"ERC20: transfer to the zero address\");\n        require(amount > 0, \"ERC20: transfer amount must be greater than zero\");\n        uint256 senderBalance = balanceOf(sender);\n        require(senderBalance >= amount, \"ERC20: transfer amount exceeds balance\");\n\n        MarketSide _side;\n        if(_isExchange[sender]){\n            _side = MarketSide.BUY;\n        } else if(_isExchange[recipient]) {\n            _side = MarketSide.SELL;\n        } else {\n            _side = MarketSide.NONE;\n        }\n\n        _transferStandard(sender, recipient, amount, _side);\n    }\n\n    //--------------------------View Functions----------------------------------\n\n    /// @notice Provides scaled down amount based on current reflection rate.\n    /// @dev Helper function for balanceOf function. Scales down a given amount,\n    /// inclusive of reflections, by reflection rate.\n    /// @param rAmount is the amount, inclusive of reflections, to be scaled\n    /// down by reflection rate.\n    /// @return tAmount_ is amount scaled down by current reflection rate.\n    function tokenFromReflection(uint256 rAmount) public view returns(uint256) {\n        require(rAmount <= _rTotal, \"Amount must be less than total supply\");\n        uint256 currentRate =  _getRate();\n        return rAmount / currentRate;\n    }\n\n    /// @notice Allows checking whether an account has been excluded from\n    /// receiving reflection distributions.\n    /// @param account is address to be checked if excluded from reflections.\n    /// @return excluded_ is true if account is excluded, otherwise, returns\n    /// false.\n    function isExcluded(address account) public view returns (bool) {\n        return _isExcluded[account];\n    }\n\n    /// @notice Returns which address is receiving marketing fees\n    /// from 'BUY' / 'SELL' transactions.\n    function getMarketingWallet() public view returns (address){\n      return _marketingWallet;\n    }\n\n    /// @notice Returns which address is receiving acquisition fees\n    /// from 'BUY' / 'SELL' transactions at a given index.\n    /// @param index is number between 0 - 4 representing wallets 1 through 5.\n    function getAcquisitionWallet(uint256 index) public view returns (address){\n      require(index < _acquisitionWallets.length, \"Invalid index\");\n      return _acquisitionWallets[index];\n    }\n\n    /// @notice Allows to view total amount of reflection fees collected since\n    /// contract creation.\n    /// @return totalFees_ is total reflection fees collected.\n    function totalFees() public view returns (uint256) {\n        return _tFeeTotal;\n    }\n\n    //--------------------------Token Transfer----------------------------------\n\n    /// @dev Updates _rOwned and _tOwned balances after deducting applicable\n    /// transaction fees and allocates fees to marketing and acquisition\n    /// wallets. {_getValues} helper function calculates all relevant amounts.\n    /// Emits a {Transfer} event after the balances have been updated.\n    /// @param sender is address sending token.\n    /// @param recipient is address receiving token.\n    /// @param tAmount is number of tokens being transferred.\n    /// @param _side is transaction type: 'BUY', 'SELL', 'NONE'.\n    function _transferStandard(\n      address sender,\n      address recipient,\n      uint256 tAmount,\n      MarketSide _side\n      ) private {\n\n        (\n          FeeValues memory _tValues,\n          FeeValues memory _rValues\n          ) = _getValues(tAmount, _side);\n\n        if(_isExcluded[sender]){\n          _tOwned[sender] -= _tValues.Amount;\n          _rOwned[sender] -= _rValues.Amount;\n        } else {\n          _rOwned[sender] -= _rValues.Amount;\n        }\n\n        if(_isExcluded[recipient]){\n          _tOwned[recipient] += _tValues.TransferAmount;\n          _rOwned[recipient] += _rValues.TransferAmount;\n        } else {\n          _rOwned[recipient] += _rValues.TransferAmount;\n        }\n        emit Transfer(sender, recipient, _tValues.TransferAmount);\n\n        if(_side != MarketSide.NONE){\n          _reflectFee(_rValues.ReflectFee, _tValues.ReflectFee);\n          if(_tValues.MarketingFee > 0) {\n            if(_isExcluded[_marketingWallet]){\n              _tOwned[_marketingWallet] += _tValues.MarketingFee;\n              _rOwned[_marketingWallet] += _rValues.MarketingFee;\n            } else {\n              _rOwned[_marketingWallet] += _rValues.MarketingFee;\n            }\n            emit Transfer(sender, _marketingWallet, _tValues.MarketingFee);\n          }\n\n          if(_tValues.AcquisitionFee > 0) {\n            _acquisitionWalletAlloc(\n              sender, _tValues.AcquisitionFee,\n              _rValues.AcquisitionFee\n              );\n          }\n        }\n    }\n\n    /// @dev Allocates the acquisition wallet fees to each of the five\n    /// acquisition addresses in equal proportion.\n    /// @param sender is address sending token.\n    /// @param tAmount is amount of tokens to be allocated.\n    /// @param rAmount is scaled up amount, inclusive of reflections, of tokens\n    /// to be allocated.\n    function _acquisitionWalletAlloc(\n      address sender,\n      uint256 tAmount,\n      uint256 rAmount\n      ) private {\n        uint256 _tAllocation = tAmount / _acquisitionWallets.length;\n        uint256 _rAllocation = rAmount / _acquisitionWallets.length;\n\n        for(uint i = 0; i < _acquisitionWallets.length; i++){\n          if(_isExcluded[_acquisitionWallets[i]]){\n            _tOwned[_acquisitionWallets[i]] += _tAllocation;\n            _rOwned[_acquisitionWallets[i]] += _rAllocation;\n          } else {\n            _rOwned[_acquisitionWallets[i]] += _rAllocation;\n          }\n          emit Transfer(sender, _acquisitionWallets[i], _tAllocation);\n        }\n    }\n\n    //--------------------------Fee Calculation---------------------------------\n\n    /// @dev Updates {_rTotal} supply by subtracting reflection fees. Updates\n    /// {_tFeeTotal} to add reflection fees. This is used to update the\n    /// reflection rate to calculate users' balances included in reflection.\n    /// @param rFee Scaled up reflection fees from transaction\n    /// @param tFee Actual reflection fees from transaction\n    function _reflectFee(uint256 rFee, uint256 tFee) private {\n        _rTotal = _rTotal - rFee;\n        _tFeeTotal = _tFeeTotal + tFee;\n    }\n\n    /// @dev Calculates the required fees to be deducted for given transaction\n    /// amount and transaction type.\n    /// @param tAmount is the amount being transferred by user.\n    /// @param _side is the transaction type: {BUY}, {SELL}, {NONE}.\n    /// @return tValues_ is the calculated actual fee values for transfer\n    /// amount {tAmount}.\n    function _getValues(\n      uint256 tAmount,\n      MarketSide _side\n      ) private view returns (\n        FeeValues memory tValues_,\n        FeeValues memory rValues_\n        ) {\n\n        uint256 currentRate =  _getRate();\n        FeeValues memory _tValues = _getTValues(tAmount, _side);\n        FeeValues memory _rValues = _getRValues(_tValues, currentRate);\n\n        return (_tValues, _rValues);\n    }\n\n    /// @dev Function call {_getFeeValues} to obtain the relevant fee\n    /// percentage for the {_side} transaction type. Calculates the actual\n    /// marketing, acquistion, and reflection fees to be deducted from the\n    /// transfer amount.\n    /// @param tAmount is the amount being transferred by user.\n    /// @param _side is the transaction type: 'BUY', 'SELL', 'NONE'.\n    function _getTValues(\n      uint256 tAmount,\n      MarketSide _side\n      ) private view returns (FeeValues memory) {\n        (\n          uint8 feeReflect_,\n          uint8 feeMarketing_,\n          uint8 feeAcquisition_\n          ) = _getFeeValues(_side);\n\n        FeeValues memory _tValues;\n        _tValues.Amount = tAmount;\n        _tValues.ReflectFee = tAmount * feeReflect_ / 100;\n        _tValues.MarketingFee = tAmount * feeMarketing_ / 100;\n        _tValues.AcquisitionFee = tAmount * feeAcquisition_ / 100;\n        _tValues.TransferAmount =\n          _tValues.Amount\n          - _tValues.ReflectFee\n          - _tValues.MarketingFee\n          - _tValues.AcquisitionFee;\n\n        return (_tValues);\n    }\n\n    /// @dev Scales up the actual transaction fees {_tValues} by reflection\n    /// rate to allow proper update of _rOwned user balance.\n    /// @param _tValues is the struct containing actual transfer amount and\n    /// fees to be deducted.\n    /// @param currentRate is current reflection rate.\n    function _getRValues(\n      FeeValues memory _tValues,\n      uint256 currentRate\n      ) private pure returns (FeeValues memory) {\n\n        FeeValues memory _rValues;\n        _rValues.Amount = _tValues.Amount * currentRate;\n        _rValues.ReflectFee = _tValues.ReflectFee * currentRate;\n        _rValues.MarketingFee = _tValues.MarketingFee * currentRate;\n        _rValues.AcquisitionFee = _tValues.AcquisitionFee * currentRate;\n        _rValues.TransferAmount =\n          _rValues.Amount\n          - _rValues.ReflectFee\n          - _rValues.MarketingFee\n          - _rValues.AcquisitionFee;\n\n        return (_rValues);\n    }\n\n    /// @dev Calculates the reflection rate based on rSupply and rSupply. As\n    /// reflection fees are deducted from rSupply by {_reflectFee} function,\n    /// the reflection rate will decrease, causing users' balances to increase\n    /// by the reflection fee in proportion to the user's balance / total supply\n    function _getRate() private view returns (uint256) {\n        (uint256 rSupply, uint256 tSupply) = _getCurrentSupply();\n        return rSupply / tSupply;\n    }\n\n    /// @dev Calculates the transaction fee percentages depending on whether\n    /// user is buying, selling, or transferring the token.\n    /// @param _side is the transaction type: 'BUY', 'SELL', 'NONE'.\n    function _getFeeValues(MarketSide _side) private view returns (\n      uint8,\n      uint8,\n      uint8\n      ) {\n        if(_side == MarketSide.BUY){\n            return (_buyFeeReflect, _buyFeeMarketing, _buyFeeAcquisition);\n        } else if(_side == MarketSide.SELL){\n            return (_sellFeeReflect, _sellFeeMarketing, _sellFeeAcquisition);\n        } else {\n            return (0, 0, 0);\n        }\n    }\n\n    /// @dev Calculates the scaled up and actual token supply exclusive of\n    /// excluded addresses. This impacts the reflection rate (greater decrease)\n    /// to allow included addresses to receive reflections that would have gone\n    /// to excluded accounts.\n    function _getCurrentSupply() private view returns (uint256, uint256) {\n        uint256 rSupply = _rTotal;\n        uint256 tSupply = _tTotal;\n        for (uint256 i = 0; i < _excluded.length; i++) {\n          if (_rOwned[_excluded[i]] > rSupply || _tOwned[_excluded[i]] > tSupply)\n          return (_rTotal, _tTotal);\n\n          rSupply = rSupply - _rOwned[_excluded[i]];\n          tSupply = tSupply - _tOwned[_excluded[i]];\n        }\n        if (rSupply < _rTotal / _tTotal) return (_rTotal, _tTotal);\n        return (rSupply, tSupply);\n    }\n\n    //--------------------------Restricted Functions----------------------------\n\n    /// @notice Sets the exchange pair address for the token to detect 'BUY',\n    /// 'SELL', or 'NONE' transactions for fee collection. Can only be updated\n    /// by administrator.\n    /// @dev Only transactions to, and from this address will trigger fee\n    /// collection.\n    /// @param exchangePair is the DEX-created contract address of the\n    /// exchange pair.\n    function setExchange(address exchangePair) external onlyOwner {\n        require(!_isExchange[exchangePair], \"Address already Exchange\");\n        _isExchange[exchangePair] = true;\n    }\n\n    /// @notice Removes an exchange pair address from fee collection. Can\n    /// only be updated by administrator.\n    /// @param exchangePair is the DEX-created contract address of the exchange\n    /// pair to be removed as an \"exchange\" for fee collection.\n    function removeExchange(address exchangePair) external onlyOwner {\n        require(_isExchange[exchangePair], \"Address not Exchange\");\n        _isExchange[exchangePair] = false;\n    }\n\n    /// @notice Changes marketing wallet address to receive marketing fee going\n    /// forward. Can only be updated by administrator.\n    /// @param newAddress is the new address to replace existing\n    /// marketing wallet address.\n    function changeMarketing(address newAddress) external onlyOwner {\n        require(newAddress != address(0), \"Address cannot be zero address\");\n        _marketingWallet = newAddress;\n    }\n\n    /// @notice Changes acquisition wallets address to receive acquisition fee\n    /// going forward. Can only be updated by administrator.\n    /// @param index is the acquisition wallet address to be replaced,\n    /// from 0 to 4.\n    /// @param newAddress is the new address to replace existing\n    /// acquisition wallet address.\n    function changeAcquisition(\n      uint256 index,\n      address newAddress\n      ) external onlyOwner {\n        require(index < _acquisitionWallets.length, \"Invalid index value\");\n        require(newAddress != address(0), \"Address cannot be zero address\");\n        _acquisitionWallets[index] = newAddress;\n    }\n\n    /// @notice Changes the reflection, marketing, and acquisition fee\n    /// percentages to be deducted from 'BUY' transaction type. Can only be\n    /// updated by administrator.\n    /// @param reflectFee is the new reflection fee percentage.\n    /// @param marketingFee is the new marketing fee percentage.\n    /// @param acquisitionFee is the new acquisition fee percentage.\n    function setBuyFees(\n      uint8 reflectFee,\n      uint8 marketingFee,\n      uint8 acquisitionFee\n      ) external onlyOwner {\n        require(reflectFee + marketingFee + acquisitionFee < 100,\n          \"Total fee percentage must be less than 100%\"\n          );\n\n        _buyFeeReflect = reflectFee;\n        _buyFeeMarketing = marketingFee;\n        _buyFeeAcquisition = acquisitionFee;\n    }\n\n    /// @notice Changes the reflection, marketing, and acquisition fee\n    /// percentages to be deducted from {SELL} transaction type. Can only be\n    /// updated by administrator.\n    /// @param reflectFee is the new reflection fee percentage.\n    /// @param marketingFee is the new marketing fee percentage.\n    /// @param acquisitionFee is the new acquisition fee percentage.\n    function setSellFees(\n      uint8 reflectFee,\n      uint8 marketingFee,\n      uint8 acquisitionFee\n      ) external onlyOwner {\n        require(reflectFee + marketingFee + acquisitionFee < 100,\n          \"Total fee percentage must be less than 100%\"\n          );\n\n        _sellFeeReflect = reflectFee;\n        _sellFeeMarketing = marketingFee;\n        _sellFeeAcquisition = acquisitionFee;\n    }\n\n    /// @notice Removes address from receiving future reflection distributions.\n    /// Can only be updated by administrator.\n    /// @param account is address to be excluded from reflections.\n    function excludeAccount(address account) external onlyOwner {\n        require(!_isExcluded[account], \"Account already excluded\");\n        require(balanceOf(account) < _tTotal, \"Cannot exclude total supply\");\n         _tOwned[account] = balanceOf(account);\n         _excluded.push(account);\n        _isExcluded[account] = true;\n    }\n\n    /// @notice Includes previously excluded address to receive reflection\n    /// distributions in case of erroneously excluded address. NOTE: Included\n    /// address will receive all previous reflection distribution it should\n    /// have received while address was excluded. Can only be updated by\n    /// administrator.\n    /// @param account is address to be re-included to reflections.\n    function includeAccount(address account) external onlyOwner {\n      require(_isExcluded[account], \"Account already included\");\n\n      for (uint256 i = 0; i < _excluded.length; i++) {\n        if (_excluded[i] == account) {\n          _excluded[i] = _excluded[_excluded.length - 1];\n          _excluded.pop();\n          _isExcluded[account] = false;\n          break;\n        }\n      }\n    }\n\n    /// @notice Pauses token transfer functionality in case of emergency.\n    /// Can only be updated by administrator.\n    function lockToken() external onlyOwner {\n        _pause();\n    }\n\n    /// @notice Unpauses token transfer functionality to allow users to\n    /// transfer token. Can only be updated by administrator.\n    function unlockToken() external onlyOwner {\n        _unpause();\n    }\n}\n",
  "sourcePath": "/Users/rafaelmendoza/Desktop/Company/Freelance Jobs/CryptoToken-1002/contracts/Aggregate.sol",
  "compiler": {
    "name": "solc",
    "version": "0.8.7+commit.e28d00a7.Emscripten.clang"
  },
  "schemaVersion": "3.2.3",
  "updatedAt": "2021-12-16T06:09:58.093Z",
  "devdoc": {
    "kind": "dev",
    "methods": {
      "allowance(address,address)": {
        "details": "See {IERC20-allowance}."
      },
      "approve(address,uint256)": {
        "details": "See {IERC20-approve}. Requirements: - `spender` cannot be the zero address."
      },
      "balanceOf(address)": {
        "details": "Overrides ERC20 balanceOf function. If account is excluded then _tOwned balance is returned since that tracks token balance without reflections. Otherwise, _rOwned balance is returned after scaling down by reflection rate.",
        "params": {
          "account": "is address to be checked for token balance."
        },
        "returns": {
          "_0": "balance_ is token balance of 'account'."
        }
      },
      "changeAcquisition(uint256,address)": {
        "params": {
          "index": "is the acquisition wallet address to be replaced, from 0 to 4.",
          "newAddress": "is the new address to replace existing acquisition wallet address."
        }
      },
      "changeMarketing(address)": {
        "params": {
          "newAddress": "is the new address to replace existing marketing wallet address."
        }
      },
      "constructor": {
        "params": {
          "acquisition_": "is list of initial 5 acquisition wallet addresses.",
          "marketing_": "is inital marketing wallet address.",
          "name_": "is token name.",
          "supply_": "is total token supply.",
          "symbol_": "is token symbol."
        }
      },
      "decimals()": {
        "details": "Overrides ERC20 decimals function. Value of 4 decimals is required to maintain precision of arithmetic operations for reflection fee distributions, given the token supply.",
        "returns": {
          "_0": "decimals_ is number of decimals for display purposes."
        }
      },
      "decreaseAllowance(address,uint256)": {
        "details": "Atomically decreases the allowance granted to `spender` by the caller. This is an alternative to {approve} that can be used as a mitigation for problems described in {IERC20-approve}. Emits an {Approval} event indicating the updated allowance. Requirements: - `spender` cannot be the zero address. - `spender` must have allowance for the caller of at least `subtractedValue`."
      },
      "excludeAccount(address)": {
        "params": {
          "account": "is address to be excluded from reflections."
        }
      },
      "getAcquisitionWallet(uint256)": {
        "params": {
          "index": "is number between 0 - 4 representing wallets 1 through 5."
        }
      },
      "includeAccount(address)": {
        "params": {
          "account": "is address to be re-included to reflections."
        }
      },
      "increaseAllowance(address,uint256)": {
        "details": "Atomically increases the allowance granted to `spender` by the caller. This is an alternative to {approve} that can be used as a mitigation for problems described in {IERC20-approve}. Emits an {Approval} event indicating the updated allowance. Requirements: - `spender` cannot be the zero address."
      },
      "isExcluded(address)": {
        "params": {
          "account": "is address to be checked if excluded from reflections."
        },
        "returns": {
          "_0": "excluded_ is true if account is excluded, otherwise, returns false."
        }
      },
      "name()": {
        "details": "Returns the name of the token."
      },
      "owner()": {
        "details": "Returns the address of the current owner."
      },
      "paused()": {
        "details": "Returns true if the contract is paused, and false otherwise.",
        "returns": {
          "status": "is current pause status. Returns true if contract is paused, otherwise, returns false."
        }
      },
      "removeExchange(address)": {
        "params": {
          "exchangePair": "is the DEX-created contract address of the exchange pair to be removed as an \"exchange\" for fee collection."
        }
      },
      "renounceOwnership()": {
        "details": "Leaves the contract without owner. It will not be possible to call `onlyOwner` functions anymore. Can only be called by the current owner. NOTE: Renouncing ownership will leave the contract without an owner, thereby removing any functionality that is only available to the owner."
      },
      "setBuyFees(uint8,uint8,uint8)": {
        "params": {
          "acquisitionFee": "is the new acquisition fee percentage.",
          "marketingFee": "is the new marketing fee percentage.",
          "reflectFee": "is the new reflection fee percentage."
        }
      },
      "setExchange(address)": {
        "details": "Only transactions to, and from this address will trigger fee collection.",
        "params": {
          "exchangePair": "is the DEX-created contract address of the exchange pair."
        }
      },
      "setSellFees(uint8,uint8,uint8)": {
        "params": {
          "acquisitionFee": "is the new acquisition fee percentage.",
          "marketingFee": "is the new marketing fee percentage.",
          "reflectFee": "is the new reflection fee percentage."
        }
      },
      "symbol()": {
        "details": "Returns the symbol of the token, usually a shorter version of the name."
      },
      "tokenFromReflection(uint256)": {
        "details": "Helper function for balanceOf function. Scales down a given amount, inclusive of reflections, by reflection rate.",
        "params": {
          "rAmount": "is the amount, inclusive of reflections, to be scaled down by reflection rate."
        },
        "returns": {
          "_0": "tAmount_ is amount scaled down by current reflection rate."
        }
      },
      "totalFees()": {
        "returns": {
          "_0": "totalFees_ is total reflection fees collected."
        }
      },
      "totalSupply()": {
        "details": "Overrides ERC20 totalSupply function.",
        "returns": {
          "_0": "supply_ is total token supply."
        }
      },
      "transfer(address,uint256)": {
        "details": "See {IERC20-transfer}. Requirements: - `recipient` cannot be the zero address. - the caller must have a balance of at least `amount`."
      },
      "transferFrom(address,address,uint256)": {
        "details": "See {IERC20-transferFrom}. Emits an {Approval} event indicating the updated allowance. This is not required by the EIP. See the note at the beginning of {ERC20}. Requirements: - `sender` and `recipient` cannot be the zero address. - `sender` must have a balance of at least `amount`. - the caller must have allowance for ``sender``'s tokens of at least `amount`."
      },
      "transferOwnership(address)": {
        "details": "Transfers ownership of the contract to a new account (`newOwner`). Can only be called by the current owner."
      }
    },
    "title": "A Fee on Transfer token with automatic reflections to holders.",
    "version": 1
  },
  "userdoc": {
    "kind": "user",
    "methods": {
      "balanceOf(address)": {
        "notice": "See {IERC20-balanceOf}."
      },
      "changeAcquisition(uint256,address)": {
        "notice": "Changes acquisition wallets address to receive acquisition fee going forward. Can only be updated by administrator."
      },
      "changeMarketing(address)": {
        "notice": "Changes marketing wallet address to receive marketing fee going forward. Can only be updated by administrator."
      },
      "constructor": {
        "notice": "Sets the values for name, symbol, totalSupply, marketingWallet, and acquisitionWallets. Initial allocation: 95% to Admin account (for liquidity), 2% to Marketing wallet, 3% to Acquisition wallets."
      },
      "decimals()": {
        "notice": "Number of decimals for token representation."
      },
      "excludeAccount(address)": {
        "notice": "Removes address from receiving future reflection distributions. Can only be updated by administrator."
      },
      "getAcquisitionWallet(uint256)": {
        "notice": "Returns which address is receiving acquisition fees from 'BUY' / 'SELL' transactions at a given index."
      },
      "getMarketingWallet()": {
        "notice": "Returns which address is receiving marketing fees from 'BUY' / 'SELL' transactions."
      },
      "includeAccount(address)": {
        "notice": "Includes previously excluded address to receive reflection distributions in case of erroneously excluded address. NOTE: Included address will receive all previous reflection distribution it should have received while address was excluded. Can only be updated by administrator."
      },
      "isExcluded(address)": {
        "notice": "Allows checking whether an account has been excluded from receiving reflection distributions."
      },
      "lockToken()": {
        "notice": "Pauses token transfer functionality in case of emergency. Can only be updated by administrator."
      },
      "removeExchange(address)": {
        "notice": "Removes an exchange pair address from fee collection. Can only be updated by administrator."
      },
      "setBuyFees(uint8,uint8,uint8)": {
        "notice": "Changes the reflection, marketing, and acquisition fee percentages to be deducted from 'BUY' transaction type. Can only be updated by administrator."
      },
      "setExchange(address)": {
        "notice": "Sets the exchange pair address for the token to detect 'BUY', 'SELL', or 'NONE' transactions for fee collection. Can only be updated by administrator."
      },
      "setSellFees(uint8,uint8,uint8)": {
        "notice": "Changes the reflection, marketing, and acquisition fee percentages to be deducted from {SELL} transaction type. Can only be updated by administrator."
      },
      "tokenFromReflection(uint256)": {
        "notice": "Provides scaled down amount based on current reflection rate."
      },
      "totalFees()": {
        "notice": "Allows to view total amount of reflection fees collected since contract creation."
      },
      "totalSupply()": {
        "notice": "See {IERC20-totalSupply}."
      },
      "unlockToken()": {
        "notice": "Unpauses token transfer functionality to allow users to transfer token. Can only be updated by administrator."
      }
    },
    "notice": "Token contract inheriting ERC20 standard with basic access control and emergency pause mechanism. The token contract implements Fee on Transfer distributed among marketing wallet, acquisition wallets, and all token holders (via reflections) on Buy / Sell transactions only. Wallet-to-wallet transfers do not incur a fee on transfer.",
    "version": 1
  }
}